{
    "contractName": "Students",
    "abi": [
        {
            "inputs": [
                {
                    "internalType": "string",
                    "name": "studentName",
                    "type": "string"
                },
                {
                    "internalType": "uint8",
                    "name": "studentAge",
                    "type": "uint8"
                }
            ],
            "name": "enrollStudent",
            "outputs": [],
            "stateMutability": "nonpayable",
            "type": "function"
        },
        {
            "inputs": [
                {
                    "internalType": "address",
                    "name": "studentAddress",
                    "type": "address"
                }
            ],
            "name": "getEnrolledStudentByAddress",
            "outputs": [
                {
                    "components": [
                        {
                            "internalType": "string",
                            "name": "studentName",
                            "type": "string"
                        },
                        {
                            "internalType": "uint8",
                            "name": "studentAge",
                            "type": "uint8"
                        }
                    ],
                    "internalType": "struct Students.Student",
                    "name": "",
                    "type": "tuple"
                }
            ],
            "stateMutability": "view",
            "type": "function"
        }
    ],
    "bytecode": "608060405234801561001057600080fd5b506105b1806100206000396000f3fe608060405234801561001057600080fd5b50600436106100365760003560e01c80631a4f7b951461003b578063545f731f14610064575b600080fd5b61004e610049366004610342565b610079565b60405161005b91906104bb565b60405180910390f35b610077610072366004610370565b61014b565b005b610081610280565b6001600160a01b0382166000908152602081905260409081902081518083019092528054829082906100b29061052a565b80601f01602080910402602001604051908101604052809291908181526020018280546100de9061052a565b801561012b5780601f106101005761010080835404028352916020019161012b565b820191906000526020600020905b81548152906001019060200180831161010e57829003601f168201915b50505091835250506001919091015460ff1660209091015290505b919050565b61015c61015733610079565b61024a565b156101825760405162461bcd60e51b815260040161017990610458565b60405180910390fd5b61018b82610272565b6101a75760405162461bcd60e51b81526004016101799061042a565b6101b081610278565b6101cc5760405162461bcd60e51b81526004016101799061048f565b6101d4610280565b82815260ff821660208201526101e98161024a565b61020357634e487b7160e01b600052600160045260246000fd5b33600090815260208181526040909120825180518493610227928492910190610298565b50602091909101516001909101805460ff191660ff909216919091179055505050565b60006102598260000151610272565b8061026c575061026c8260200151610278565b92915050565b51151590565b60ff16151590565b60408051808201909152606081526000602082015290565b8280546102a49061052a565b90600052602060002090601f0160209004810192826102c6576000855561030c565b82601f106102df57805160ff191683800117855561030c565b8280016001018555821561030c579182015b8281111561030c5782518255916020019190600101906102f1565b5061031892915061031c565b5090565b5b80821115610318576000815560010161031d565b803560ff8116811461014657600080fd5b600060208284031215610353578081fd5b81356001600160a01b0381168114610369578182fd5b9392505050565b60008060408385031215610382578081fd5b823567ffffffffffffffff80821115610399578283fd5b818501915085601f8301126103ac578283fd5b81356020828211156103c0576103c0610565565b604051601f8301601f19168101820184811182821017156103e3576103e3610565565b60405282815284830182018910156103f9578586fd5b828286018383013780830182018690529550610416878201610331565b9450505050509250929050565b60ff169052565b6020808252601490820152734e616d652063616e6e6f7420626520656d70747960601b604082015260600190565b60208082526018908201527f53747564656e7420616c726561647920656e726f6c6c65640000000000000000604082015260600190565b6020808252601290820152714167652063616e6e6f74206265207a65726f60701b604082015260600190565b6000602080835283516040828501528051806060860152835b818110156104f0578281018401518682016080015283016104d4565b818111156105015784608083880101525b5091850151916105146040860184610423565b601f01601f191693909301608001949350505050565b60028104600182168061053e57607f821691505b6020821081141561055f57634e487b7160e01b600052602260045260246000fd5b50919050565b634e487b7160e01b600052604160045260246000fdfea26469706673582212208c59c2c90f9939508b9c43ddd775ef2fc6651dfd0e92cb8786dbec2f3285ce8964736f6c63430008000033",
    "sourcePath": "c:/Users/joaol/Documents/Blockchain/teste/contracts/Students.sol",
    "compiler": {
        "name": "solc",
        "version": "0.8.0+commit.c7dfd78e"
    },
    "functionHashes": {
        "enrollStudent(string,uint8)": "545f731f",
        "getEnrolledStudentByAddress(address)": "1a4f7b95"
    },
    "gasEstimates": {
        "creation": {
            "codeDepositCost": "291400",
            "executionCost": "331",
            "totalCost": "291731"
        },
        "external": {
            "enrollStudent(string,uint8)": "infinite",
            "getEnrolledStudentByAddress(address)": "infinite"
        },
        "internal": {
            "isStudentAgeValid(uint8)": "24",
            "isStudentNameValid(string memory)": "infinite",
            "isStudentValid(struct Students.Student memory)": "infinite"
        }
    }
}